:020000040800F2
:10000000480B002075370008950400089704000885
:100010009B0400089F040008A304000800000000DF
:10002000000000000000000000000000A70400081D
:10003000A904000800000000AB040008AD0400089B
:100040008F3700088F3700088F3700088F37000878
:100050008F3700088F3700088F3700088F37000868
:100060008F3700088F3700088F3700088F37000858
:100070008F3700088F3700088F3700088F37000848
:100080008F3700088F3700088F370008AF0400084B
:10009000B70400088F3700088F3700088F37000833
:1000A0008F3700088F3700088F3700088F37000818
:1000B0008F3700088F3700088F3700088F37000808
:1000C0008F3700088F3700088F3700088F370008F8
:1000D0008F370008E93600088F3700088F3700088F
:1000E0008F3700088F370008C104000800F002F8BD
:1000F00000F061F80AA090E8000C82448344AAF161
:100100000107DA4501D100F056F8AFF2090EBAE85E
:100110000F0013F0010F18BFFB1A43F0010318473B
:10012000847C0000A47C00000A444FF0000C10F80E
:10013000013B13F0070408BF10F8014B1D1108BF65
:1001400010F8015B641E05D010F8016B641E01F805
:10015000016BF9D113F0080F1EBF10F8014BAD1C55
:100160000C1B09D16D1E58BF01F801CBFAD505E073
:1001700014F8016B01F8016B6D1EF9D59142D6D3CD
:10018000704700000023002400250026103A28BFF5
:1001900078C1FBD8520728BF30C148BF0B607047F9
:1001A000782906F01587002070471FB507F066F81C
:1001B0001FBD10B510BD06F0C7FF1146FFF7F5FFD4
:1001C00000F008F806F0E5FF03B4FFF7F2FF03BC08
:1001D00003F030FA0024002700F0D8F9482003F09B
:1001E000D5F903F021FA4FF4165003F031FA00F07C
:1001F0004DFA00F03AFD4FF478406349088063A25D
:1002000032213C2002F056FC63A246213C2002F041
:1002100051FC64A25A213C2002F04CFC65A26E21E4
:100220003C2002F047FC11E065A282213C2002F054
:1002300041FC4FF4FA7003F0BDF965A282213C2025
:1002400002F038FC4FF4FA7003F0B4F902F0EDFD5F
:100250000028E9D162A282213C2002F02BFC02F0AE
:1002600033FF634908604FF40070624908606048DA
:1002700000680968B0FBF1F05F4908605FA2962151
:100280003C2002F017FC05F0FFFD05F0E5FD04F051
:10029000FDFF78E0012003F08DF95D48007885428C
:1002A0003AD05CA2AA213C2002F004FC5848007815
:1002B00010F0010F04D05BA2AA213C2002F0FAFB4F
:1002C0005348007810F0020F04D05AA2AA213C2013
:1002D00002F0F0FB4E48007810F0040F05D059A250
:1002E000BE213C2002F0E6FB04E04AA2BE213C20F5
:1002F00002F0E0FB4648007810F0080F05D055A248
:10030000D2213C2002F0D6FB04E042A2D2213C20C4
:1003100002F0D0FB3E48057852480068864211D072
:1003200050480068052805D14FA296213C2002F0D4
:10033000C1FB04E051A296213C2002F0BBFB4948DE
:100340000068C6B2781CC7B2C82F1CD1002750481D
:10035000006808B9012000E000204D4908602C48E1
:10036000007810F0100F04D0002405203D490860EB
:1003700006E0601CC4B20A2C02DD00203949086086
:1003800000202349087085E7180000204D696E6938
:100390002053544D3332000055534220544553549A
:1003A0000000000041544F4D40414C49454E5445DA
:1003B0004B000000323031302F362F313900000031
:1003C000534420496E6974204552522100000000B8
:1003D000506C6561736520436865636B00000000C5
:1003E00053442043617264205265616479000000C7
:1003F0005C000020640000206C0000205553422067
:10040000436F6E6E656374696E672E2E2E0000005A
:10041000000000202020202020202020202020203C
:10042000202000005553422057726974696E672E70
:100430002E2E00005553422052656164696E672E6E
:100440002E2E000055534220577269746520457264
:10045000722000005553422052656164202045728D
:10046000722000001402002055534220436F6E6E2C
:1004700065637465642020202000000055534220ED
:10048000446973436F6E6E65637465642000000099
:10049000A0012142704700BFFEE700BFFEE700BF9A
:1004A000FEE700BFFEE7704770477047704710B522
:1004B00005F08FF810BD10B506F028F910BD704793
:1004C0007047000000210020674A126842F4803221
:1004D000654B1A6000BF644A126802F40030491C80
:1004E00010B9B1F5A06FF6D15F4A126812F4003F5F
:1004F00001D0012000E00020012842D15B4A1268AF
:1005000042F01002594B1A601A46126822F0030298
:100510001A601A46126842F002021A60524A526881
:10052000514B5A601A4652685A601A46526842F451
:1005300080625A601A46526822F47C125A601A4647
:10054000526842F4E8125A601A46126842F0807209
:100550001A6000BF444A126812F0007FFAD0424A83
:10056000526822F00302404B5A601A46526842F029
:1005700002025A6000BF3C4A526802F00C02082A8C
:10058000F9D1704710B5FFF79DFF10BD10B5364883
:10059000006840F00100344908600846406834496A
:1005A00008403149486008460068324908402E49F1
:1005B00008600846006820F480200860084640680B
:1005C00020F4FE0048604FF41F008860FFF7DAFF58
:1005D0004FF000602849086010BD10B500210020D0
:1005E0000022214B5B6803F00C0121B1042906D0E5
:1005F000082928D107E0214B214C236027E01F4B1D
:100600001F4C236023E0184B5B6803F47010164BFB
:100610005B6803F48032022303EB904022B9194B4C
:100620004343174C23600DE00F4B5B6813F4003F0E
:1006300004D0144B4343124C236003E00F4B43435D
:100640000F4C236003E00D4B0D4C236000BF00BF37
:10065000054B5B68C3F303130B4CE15C084B1B6851
:10066000CB40074C236010BD001002400020024028
:100670000000FFF8FFFFF6FE08ED00E000127A0030
:100680000400002000093D000800002008B50121F9
:10069000042003F09FFC4FF48070ADF800001020A0
:1006A0008DF8030003208DF8020069460E4803F020
:1006B000DDF94FF480710C4803F083FA012120200A
:1006C00003F088FC0420ADF8000010208DF8030032
:1006D00003208DF802006946044803F0C7F904219D
:1006E000024803F06EFA08BD000801400014014002
:1006F0004FF48071FE4A516149005161FD49086023
:1007000080215161116189001161704710B54FF06E
:100710008830F8490C390860091D08600020F54947
:1007200008608815F249086140004861402048612E
:10073000F1480088A0F50941893902D1022002F070
:1007400054FF4020EA490861EA48001F006884B26B
:10075000481508614FF03330E6490C390860091D2F
:1007600008604FF6FF70E3490860204610BD10B5E1
:1007700004460B462046FFF7BBFF4FF48070DC4970
:10078000086140004861DB480360802048610861DF
:100790008000086110BD10B504462046FFF7A8FF91
:1007A000FFF7B4FF10BD00B5D3480088A0F5134192
:1007B000413902D12C20FFF79BFF00BD4FF480711F
:1007C000CB4A116149005161CA49086080215161D9
:1007D000116189001161704730B5014601F01F04B5
:1007E000C1F34513CA0AE50205EB43151544A8B247
:1007F00030BD2DE9F04105460E46F02D02DAB6F582
:10080000A07F02DB0020BDE8F0813146284606F0DB
:10081000CFFCB9480088A0F51341413903D12E20FF
:10082000FFF766FF02E02220FFF762FF4FF08830FB
:10083000B0490C390860091D08604FF6FF70AD49DA
:1008400008608815AA490861400048614020486155
:1008500008614861A8480088A0F50941893902D19A
:10086000022002F0C2FE4020A1490861A148001FF9
:10087000006884B2A0480088A0F5134141390AD12C
:1008800040209B49486108619A48001F00681FFA90
:1008900080F8E7B23F024FF40070954908614FF0CD
:1008A000333094490C390860091D08604FF6FF7019
:1008B0009049086090480088A0F58A41353911D0E8
:1008C0008D480088A0F58A4131390BD08A480088CC
:1008D000A0F50941893905D087480088A0F5354140
:1008E000053901D120468EE783480088A0F51341E1
:1008F000413907D1E012C002B91240EA411040EA82
:10090000E82080E72046FFF767FF7CE700B57A48DC
:100910000088A0F51341413903D12920FFF7E8FEF3
:1009200004E040F273110720FFF721FF00BD00B57E
:1009300071480088A0F51341413903D12820FFF701
:10094000D7FE03E000210720FFF711FF00BD70B5BF
:1009500005460024002668480088A0F51341413967
:100960007ED1082D1CD2DFE805F00406090C0F1219
:10097000151800BF14E044F0800411E044F0400476
:100980000EE044F0C0040BE044F0200408E044F022
:10099000600405E044F0A00402E044F0E00400BF7D
:1009A00000BF362644F0080421463046FFF7DFFE3C
:1009B00014F0200F75D02A20FFF79AFE4FF48070B4
:1009C0004B4908614000486100204A490860802086
:1009D0004749486108618000086140100861400093
:1009E000486100204349086080204149486108610E
:1009F00080000861401008614000486101203D49C5
:100A0000086080203A494861086180000861401010
:100A10000861400048613F20364908608020344921
:100A200048610861800008612B20FFF761FE4FF4E8
:100A300080702F4908614000486100202D490860FE
:100A400080202B49486108618000086140100861DE
:100A5000400048610020274908608020244900E0C8
:100A600099E0486108618000086140100861400019
:100A7000486100201F49086080201D4948610861C5
:100A8000800008614010086140004861EF2019496A
:100A90000860802016494861086180000861ACE068
:100AA000FFE72A20FFF724FE4FF480701049086109
:100AB0004000486100200F49086080200C494861CF
:100AC0000861800008614010086140004861002012
:100AD0000849086080200649486108618000086173
:100AE000401008614000486100200249086005E0AC
:100AF000001001400C0C01401C0000208020FE4929
:100B00004861086180000861401008614000486148
:100B1000EF20FA4908608020F749486108618000A9
:100B200008612B20FFF7E4FD4FF48070F249086163
:100B3000400048610020F14908608020EE4948618A
:100B40000861800008614010086140004861002091
:100B5000EA4908608020E84948610861800008612E
:100B600040100861400048610120E449086080208D
:100B7000E149486108618000086140100861400057
:100B800048613F20DD4908608020DB4948610861F9
:100B90008000086131E0082D1CD2DFE805F0040771
:100BA0000A0D0F12151844F0300413E044F010043D
:100BB00010E044F020040DE000BF0BE044F03804E6
:100BC00008E044F0280405E044F0180402E044F092
:100BD000080400BF00BFCA480088A0F50941893950
:100BE00004D1112646F24000044302E0032644F4F7
:100BF000805421463046FFF7BAFD70BD70B50446FB
:100C00000D462946204606F0D3FAFFF7CCFD4FF4F7
:100C10008070B949086140004861BA480088B74906
:100C200008608020B449486108618000086170BD97
:100C300070B5044600250021084606F0B9FAFFF712
:100C4000B2FD00BF0DE04FF48070AB490861400079
:100C50004861AA48046080204861086180000861FA
:100C60006D1CB5F5963FEED370BD08B50121192076
:100C700003F0B0F90121A44802F0C7FF4FF4F86077
:100C8000ADF8000010208DF8030003208DF802005D
:100C90006946994802F0EAFE4FF4F861964802F07E
:100CA00090FF4FF6FF70ADF80000694693480C388E
:100CB00002F0DCFE4FF6FF7190480C3802F081FF25
:100CC000322002F077FC01210020FFF750FD322096
:100CD00002F070FC0020FFF75EFD8949088008469D
:100CE000008828B108460088A0F57F41FF3918D157
:100CF000D320FFF7FDFCFFF709FDFFF707FDFFF726
:100D000005FD00F0BF007E49088008460088000607
:100D1000000C0880FFF7FAFC7949098808437849F4
:100D200008807748018879A006F010F97448008897
:100D3000A0F5134141397DD1CF20FFF7D9FC4FF405
:100D400080706D4908614000486100206B4908606F
:100D5000802069494861086180000861401008618D
:100D600040004861C12065490860802062494861AF
:100D7000086180000861401008614000486130202F
:100D80005E49086080205C49486108618000086114
:100D9000ED20FFF7ADFC4FF480705749086140002B
:100DA00048616420554908608020534948610861C2
:100DB00080000861401008614000486103204F49ED
:100DC000086080204C49486108618000086140103B
:100DD0000861400048611220484908608020464967
:100DE0004861086180000861401008614000486166
:100DF00081204249086080203F49486108618000A5
:100E00000861E820FFF774FC4FF480703A490861EC
:100E10004000486185203949086080203649486192
:100E2000086180000861401008614000486110209E
:100E3000324900E08AE3086080202F494861086158
:100E40008000086140100861400048617A202B4909
:100E50000860802028494861086180000861CB2033
:100E6000FFF746FC4FF48070234908614000486159
:100E700039202249086080201F49486108618000AC
:100E8000086140100861400048612C201B4908603F
:100E9000802019494861086180000861401008619C
:100EA00040004861002015490860802012494861CF
:100EB00008618000086140100861400048613420EA
:100EC0000E49086080200C49486108618000086173
:100ED00040100861400048610220084908608020F5
:100EE00005494861086180000861F720FFF700FCB0
:100EF0004FF48070004911E0001001400C0C0140DB
:100F00001C0000201800002000023000204C434448
:100F10002049443A25780D0A00000000086140008D
:100F200048612020FE4908608020FE494861086130
:100F300080000861EA20FFF7DBFB4FF48070F9497D
:100F40000861400048610020F54908608020F549AB
:100F500048610861800008614010086140004861F4
:100F60000020EF4908608020EE4948610861800058
:100F70000861C020FFF7BCFB4FF48070E9490861AD
:100F8000400048611B20E64908608020E54948612F
:100F9000086180000861C120FFF7AAFB4FF4807050
:100FA000E0490861400048610120DD490860802077
:100FB000DC494861086180000861C520FFF798FBA3
:100FC0004FF48070D7490861400048613020D4490F
:100FD00008608020D34948610861800008614010A2
:100FE0000861400048613020CD4908608020CD492B
:100FF0004861086180000861C720FFF779FB4FF462
:101000008070C849086140004861B720C449086041
:101010008020C44948610861800008613620FFF7DC
:1010200067FB4FF48070BF49086140004861482069
:10103000BB4908608020BB494861086180000861A5
:101040003A20FFF755FB4FF48070B6490861400025
:1010500048615520B24908608020B2494861086162
:1010600080000861B120FFF743FB4FF48070AD4969
:101070000861400048610020A94908608020A94912
:1010800048610861800008614010086140004861C3
:101090001A20A34908608020A249486108618000A5
:1010A0000861B620FFF724FB4FF480709D4908616A
:1010B000400048610A209A490860802099494861A7
:1010C0000861800008614010086140004861A2206A
:1010D0009349086080209349486108618000086155
:1010E000F220FFF705FB4FF480708E490861400045
:1010F000486100208A49086080208A494861086167
:10110000800008612620FFF7F3FA4FF480708549CC
:1011100008614000486101208149086080208149C0
:101120004861086180000861E020FFF7E1FA4FF4B0
:1011300080707C490861400048610F207849086050
:10114000802078494861086180000861401008618A
:10115000400048612A207249086080207149486136
:101160000861800008614010086140004861282043
:101170006B49086080206B49486108618000086104
:1011800040100861400048610820654908608020DF
:1011900064494861086180000861401008614000AE
:1011A00048610E205E49086080205E494861086100
:1011B00080000861401008614000486108205849DB
:1011C000086080205749486108618000086140102C
:1011D000086140004861542051490860802051490D
:1011E0004861086180000861401008614000486162
:1011F000A9204B49086080204A4948610861800065
:10120000086140100861400048614320444908607B
:1012100080204449486108618000086140100861ED
:10122000400048610A203E49086080203D494861ED
:1012300008618000086140100861400048610F208B
:10124000374908608020374948610861800008619B
:10125000401008614000486100203149086080204A
:101260003049486108618000086140100861400011
:10127000486100202A49086080202A4948610861A5
:101280008000086140100861400048610020244946
:10129000086080202349486108618000086140108F
:1012A00008614000486100201D49086080201D49F8
:1012B0004861086180000861E120FFF719FA4FF4E6
:1012C0008070184908614000486100201449086096
:1012D000802014494861086180000861401008615D
:1012E0004000486115200E49086080200D49486182
:1012F00008618000086140100861400048611720C3
:10130000074908608020074948610861800008613A
:10131000401008614000486107200149086003E06F
:101320000C0C0140001001408020F7494861086121
:101330008000086140100861400048611120F349B5
:1013400008608020F0494861086180000861401011
:101350000861400048610620EC4908608020EA49A5
:1013600048610861800008614010086140004861E0
:101370002B20E64908608020E3494861086180002D
:10138000086140100861400048615620DF4908604C
:101390008020DD49486108618000086140100861D3
:1013A000400048613C20D94908608020D649486106
:1013B0000861800008614010086140004861052014
:1013C000D24908608020D0494861086180000861E6
:1013D00040100861400048611020CC49086080201E
:1013E000C9494861086180000861401008614000F7
:1013F00048610F20C54908608020C34948610861E1
:101400008000086140100861400048613F20BF49EA
:1014100008608020BC494861086180000861401074
:101420000861400048613F20B84908608020B64903
:10143000486108618000086140100861400048610F
:101440000F20B24908608020AF49486108618000E0
:1014500008612B20FFF74CF94FF48070AA4908610E
:10146000400048610020A94908608020A6494861E1
:101470000861800008614010086140004861002058
:10148000A24908608020A049486108618000086185
:10149000401008614000486101209C49086080209C
:1014A0009949486108618000086140100861400066
:1014B00048613F2095490860802093494861086150
:1014C000800008612A20FFF713F94FF480708E49DD
:1014D00008614000486100208C49086080208A49EA
:1014E000486108618000086140100861400048615F
:1014F0000020864908608020834948610861800097
:101500000861401008614000486100207F49086080
:1015100080207D49486108618000086140100861B1
:1015200040004861EF207949086080207649486191
:101530000861800008611120FFF7DAF8782002F0D6
:1015400039F82920FFF7D4F801F08BB870480088EB
:10155000A0F5134125397DD147F6F001E520FFF7CD
:1015600006F94FF480710120FFF701F94FF4E061B3
:101570000220FFF7FCF841F230010320FFF7F7F8F3
:1015800000210420FFF7F3F840F202210820FFF7C2
:10159000EEF800210920FFF7EAF800210A20FFF702
:1015A000E6F800210C20FFF7E2F800210D20FFF7FC
:1015B000DEF800210F20FFF7DAF800211020FFF7F6
:1015C000D6F807211120FFF7D2F800211220FFF7EB
:1015D000CEF800211320FFF7CAF800210720FFF7FB
:1015E000C6F841F290611020FFF7C1F840F22721C0
:1015F0001120FFF7BCF89D211220FFF7B8F84FF437
:10160000C8511320FFF7B3F825212920FFF7AFF8C1
:101610000D212B20FFF7ABF807213020FFF7A7F8AB
:1016200040F203313120FFF7A2F803213220FFF707
:101630009EF840F206213520FFF799F80821362060
:10164000FFF795F840F206413720FFF790F84FF486
:10165000417100E05EE03820FFF789F8072139206A
:10166000FFF785F840F202613C20FFF780F808217F
:101670003D20FFF77CF800215020FFF778F8EF219C
:101680005120FFF774F800215220FFF770F840F264
:101690003F115320FFF76BF84FF427416020FFF70D
:1016A00066F801216120FFF762F800216A20FFF748
:1016B0005EF800218020FFF75AF800218120FFF713
:1016C00056F800218220FFF752F800218320FFF70F
:1016D0004EF800218420FFF74AF800218520FFF70B
:1016E00046F810219020FFF742F84FF4C061922095
:1016F000FFF73DF840F233110720FFF738F82221B9
:101700000020FFF734F81FE7001001400C0C0140E7
:101710001C000020FE480088A0F5134128397DD127
:101720001021E720FFF723F801210020FFF71FF821
:101730004FF480710120FFF71AF84FF4E0610220A6
:10174000FFF715F841F230010320FFF710F80021F0
:101750000420FFF70CF840F207210820FFF707F8F4
:1017600000210920FFF703F800210A20FEF7FFFF00
:1017700001210C20FEF7FBFF00210D20FEF7F7FFF3
:1017800000210F20FEF7F3FF00211020FEF7EFFFEE
:1017900007211120FEF7EBFF00211220FEF7E7FFE3
:1017A00000211320FEF7E3FF322001F003FF41F296
:1017B00090511020FEF7DBFF40F227211120FEF7A9
:1017C000D6FF322001F0F6FE9C211220FEF7CFFF5B
:1017D000322001F0EFFE4FF4C8511320FEF7C7FF8F
:1017E00023212920FEF7C3FF0E212B20FEF7BFFF88
:1017F000322001F0DFFE00212020FEF7B8FF40F28A
:101800003F112120FEF7B3FF322001F0D3FE072164
:101810003020FEF7ACFF40F2077100E087E0312096
:10182000FEF7A5FF06213220FEF7A1FF40F204716A
:101830003520FEF79CFF41F604713620FEF797FF36
:1018400004213720FEF793FF00213820FEF78FFF99
:1018500040F206713920FEF78AFF40F201713C2008
:10186000FEF785FF0F213D20FEF781FF322001F0BA
:10187000A1FE00215020FEF77AFFEF215120FEF754
:1018800076FF00215220FEF772FF40F23F115320F5
:10189000FEF76DFF4FF427416020FEF768FF01213E
:1018A0006120FEF764FF00216A20FEF760FF00213F
:1018B0008020FEF75CFF00218120FEF758FF002109
:1018C0008220FEF754FF00218320FEF750FF002105
:1018D0008420FEF74CFF00218520FEF748FF1021F1
:1018E0009020FEF744FF00219220FEF740FF0321E5
:1018F0009320FEF73CFF4FF488719520FEF737FFE9
:1019000000219720FEF733FF00219820FEF72FFFDC
:1019100040F233110720FEF72AFF00212020FEF7B6
:1019200026FF40F23F112120FEF721FF0CE6784808
:101930000088A0F51341203904D075480088B0F51F
:10194000134F7DD100210846FEF711FF4FF480713F
:101950000120FEF70CFF4FF4E0610220FEF707FFC5
:1019600041F230010320FEF702FF00210420FEF7C0
:10197000FEFE40F202210820FEF7F9FE00210920B8
:10198000FEF7F5FE00210A20FEF7F1FE01210C20F2
:10199000FEF7EDFE00210D20FEF7E9FE00210F20ED
:1019A000FEF7E5FE322001F005FE40F201110720AE
:1019B000FEF7DDFE322001F0FDFD4FF486511020D0
:1019C000FEF7D5FE07211120FEF7D1FE4FF48871F6
:1019D0001220FEF7CCFE4FF430611320FEF7C7FE55
:1019E00000212920FEF7C3FE44F210012B20FEF750
:1019F000BEFE00215020FEF7BAFEEF215120FEF777
:101A0000B6FE00215220FEF7B2FE40F23F115320F5
:101A1000FEF7ADFE4FF41C516020FEF7A8FE012139
:101A20006120FEF7A4FE00216A20FEF7A0FE00213F
:101A30008020FEF79CFE00218120FEF798FE00E04A
:101A40002EE000218220FEF792FE00218320FEF787
:101A50008EFE00218420FEF78AFE00218520FEF7FD
:101A600086FE10219020FEF782FE00219220FEF7D4
:101A70007EFE01219320FEF77AFE4FF488719520B7
:101A8000FEF775FE00219720FEF771FE00219820D9
:101A9000FEF76DFE40F273110720FEF768FE53E576
:101AA0001B480088A0F5A84108397DD14FF480710A
:101AB0000120FEF75CFE4FF4E0610220FEF757FEC6
:101AC00041F230010320FEF752FE00210420FEF710
:101AD0004EFE40F207210820FEF749FE00210920B2
:101AE000FEF745FE00210A20FEF741FE00210C20F2
:101AF000FEF73DFE00210D20FEF739FE00210F20EC
:101B0000FEF735FE142001F055FD41F2B06101E011
:101B10001C0000201020FEF72AFE01211120FEF7F4
:101B200026FE01211720FEF722FE4FF49C711220A1
:101B3000FEF71DFE4FF400611320FEF718FE092189
:101B40002920FEF714FE09212A20FEF710FE0021AD
:101B5000A420FEF70CFE00215020FEF708FEEF2126
:101B60005120FEF704FE00215220FEF700FE40F255
:101B70003F115320FEF7FBFD4FF41C516020FEF790
:101B8000F6FD01216120FEF7F2FD00216A20FEF73B
:101B9000EEFD00218020FEF7EAFD00218120FEF706
:101BA000E6FD0021822000E027E0FEF7E0FD0021B5
:101BB0008320FEF7DCFD00218420FEF7D8FD002104
:101BC0008520FEF7D4FD13219020FEF7D0FD0021E3
:101BD0009220FEF7CCFD03219320FEF7C8FD4FF4C1
:101BE00088719520FEF7C3FD40F273110720FEF7C0
:101BF000BEFD322001F0DEFCA6E4FE480088A0F520
:101C0000A85105397ED10720FEF7B1FD322001F041
:101C1000D1FC4FF48E711220FEF7A9FD0121A42002
:101C2000FEF7A5FD0F210820FEF7A1FD08210A20DF
:101C3000FEF79DFD08210D20FEF799FD40F207718A
:101C40003020FEF794FD07213120FEF790FD40F291
:101C500003613220FEF78BFD4FF4E0613320FEF785
:101C600086FD40F202213420FEF781FD022135205D
:101C7000FEF77DFD41F60F713620FEF778FD40F24C
:101C800007713720FEF773FD00213820FEF76FFD46
:101C900000213920FEF76BFD40F207713A20FEF774
:101CA00066FD00213B20FEF762FD07213C20FEF788
:101CB0005EFD00213D20FEF75AFD322001F07AFC46
:101CC00001210720FEF753FD01211720FEF74FFDEC
:101CD000322001F06FFC4FF4BD511020FEF747FD9C
:101CE00040F217211120FEF742FD4FF48F711220B0
:101CF000FEF73DFD4FF470611320FEF738FD002123
:101D00002A2000E093E0FEF732FD0A212920FEF7A9
:101D10002EFD4FF49F711220FEF729FD0021502067
:101D2000FEF725FDEF215120FEF721FD0021522075
:101D3000FEF71DFD40F23F115320FEF718FD4FF452
:101D40001C516020FEF713FD01216120FEF70FFDFD
:101D500000216A20FEF70BFD00218020FEF707FD21
:101D600000218120FEF703FD00218220FEF7FFFC09
:101D700000218320FEF7FBFC00218420FEF7F7FC06
:101D800000218520FEF7F3FC13219020FEF7EFFCE5
:101D90004FF440719220FEF7EAFC05219320FEF7F4
:101DA000E6FC00219520FEF7E2FC00219720FEF7DB
:101DB000DEFC00219820FEF7DAFC4FF48071012050
:101DC000FEF7D5FC4FF4E0610220FEF7D0FC41F2B3
:101DD00030010320FEF7CBFC00210420FEF7C7FCF6
:101DE00000210C20FEF7C3FC00210F20FEF7BFFCF2
:101DF00000212020FEF7BBFC00212120FEF7B7FCCC
:101E000021210720FEF7B3FC142001F0D3FB612150
:101E10000720FEF7ACFC142001F0CCFB40F273115C
:101E20000720FEF7A4FC142001F0C4FB6BE471480A
:101E30000088A0F5354105397DD10846FEF797FCAD
:101E400000210846FEF793FC00210846FEF78FFCB0
:101E500000210846FEF78BFC0121A420FEF787FC39
:101E6000142001F0A7FB4FF41C516020FEF77FFC0B
:101E700040F202210820FEF77AFC4FF40571302071
:101E8000FEF775FC43F215713120FEF770FC40F24D
:101E900004613220FEF76BFC40F616613320FEF73A
:101EA00066FC42F211213420FEF761FC4FF4A85188
:101EB0003520FEF75CFC48F207513620FEF757FC50
:101EC00041F207413720FEF752FC41F2034138202E
:101ED000FEF74DFC20213920FEF749FC1A21902005
:101EE000FEF745FC00211020FEF741FC07211120E0
:101EF000FEF73DFC00211220FEF739FC00211320E3
:101F0000FEF735FC142001F055FB4FF4E66110207C
:101F1000FEF72DFC40F237111120FEF728FC1420AB
:101F200001F048FB4FF4DC711220FEF720FC142076
:101F300001F040FB00E086E04FF470611320FEF7F3
:101F400016FC80212A20FEF712FC48212920FEF7EA
:101F50000EFC142001F02EFB4FF480710120FEF7DF
:101F600006FC4FF4E0610220FEF701FC41F2302153
:101F70000320FEF7FCFB40F202210820FEF7F7FBEE
:101F800000210A20FEF7F3FB00210C20FEF7EFFBF7
:101F900000210D20FEF7EBFB30210E20FEF7E7FBC2
:101FA00000215020FEF7E3FBEF215120FEF7DFFB7D
:101FB00000215220FEF7DBFB40F23F115320FEF7D9
:101FC000D6FB4FF41C516020FEF7D1FB01216120AC
:101FD000FEF7CDFB00216A20FEF7C9FB11219020FE
:101FE000FEF7C5FB4FF4C0619220FEF7C0FB40F244
:101FF000024101E01C0000209320FEF7B8FB022103
:102000009420FEF7B4FB142001F0D4FA012107203C
:10201000FEF7ADFB142001F0CDFA61210720FEF799
:10202000A6FB40F273110720FEF7A1FB0021202040
:10203000FEF79DFB00212120FEF799FB22210020C5
:10204000FEF795FB0DE3FE480088A0F545410539F4
:102050007DD10846FEF78BFB00210846FEF787FB83
:10206000142001F0A7FA00210846FEF780FB0021AA
:102070000846FEF77CFB00210846FEF778FB0021AE
:102080000846FEF774FB0121A420FEF770FB142024
:1020900001F090FA4FF41C516020FEF768FB40F607
:1020A00006010820FEF763FB40F203713020FEF7C3
:1020B0005EFB01213120FEF75AFB04213220FEF79E
:1020C00056FB4FF481713320FEF751FB4FF4407102
:1020D0003420FEF74CFB40F203113520FEF747FB9E
:1020E0001F213620FEF743FB40F203713720FEF735
:1020F0003EFB01213820FEF73AFB04213920FEF790
:1021000036FB15219020FEF732FB4FF48261102040
:10211000FEF72DFB40F247211120FEF728FB4FF47C
:10212000DE711220FEF723FB4FF460611320FEF7EF
:102130001EFB782001F03EFA4FF480710120FEF77B
:1021400016FB4FF400710220FEF711FB00E050E097
:1021500041F230010320FEF70AFB08210A20FEF7B6
:1021600006FB00210C20FEF702FB20210E20FEF7CB
:10217000FEFA00210F20FEF7FAFA00212020FEF7D8
:10218000F6FA00212120FEF7F2FA3D212A20FEF77F
:10219000EEFA142001F00EFA2D212920FEF7E7FABD
:1021A00000215020FEF7E3FA4DF2EF015120FEF737
:1021B000DEFA00215220FEF7DAFA40F23F115320F6
:1021C000FEF7D5FA00216120FEF7D1FA00216A203E
:1021D000FEF7CDFA4FF440719220FEF7C8FA0521C0
:1021E0009320FEF7C4FA4FF480710720FEF7BFFA80
:1021F00037E293480088A0F5094189397ED1012151
:102200000020FEF7B4FA4AF6A4010320FEF7AFFA65
:1022100000210C20FEF7ABFA40F60C010D20FEF772
:10222000A6FA4FF42C510E20FEF7A1FAB0211E2081
:10223000FEF79DFA42F63F310120FEF798FA4FF47F
:10224000C0610220FEF793FA00211020FEF78FFAFA
:1022500046F270011120FEF78AFA00210620FEF7EF
:1022600086FA4EF61C711620FEF781FA032117201C
:10227000FEF77DFA40F233210720FEF778FA0021BD
:102280000B20FEF774FA00210F20FEF770FA0021F0
:102290004120FEF76CFA00214220FEF768FA002187
:1022A0004820FEF764FA40F23F114920FEF75FFA3A
:1022B00000214A20FEF75BFA00214B20FEF757FA77
:1022C0004FF46F414420FEF752FA00214520FEF7FB
:1022D0004EFA40F23F114620FEF749FA40F20771EC
:1022E0003020FEF744FA4FF401713120FEF73FFA37
:1022F0004FF401713220FEF73AFA00E038E040F284
:1023000002513320FEF733FA40F207513420FEF732
:102310002EFA4FF401713520FEF729FA4FF40171BE
:102320003620FEF724FA40F202513720FEF71FFA5A
:1023300040F202313A20FEF71AFA40F202313B2015
:10234000FEF715FA00212320FEF711FA00212420C0
:10235000FEF70DFA4FF400412520FEF708FA0021A0
:102360004F20FEF704FA00214E20FEF700FA78E134
:1023700033480088A0F58A41313960D1012100201D
:10238000FEF7F5F90A2001F015F941F22861102055
:10239000FEF7EDF90E211220FEF7E9F940F639219A
:1023A0001320FEF7E4F90A2001F004F9402111207E
:1023B000FEF7DDF950211520FEF7D9F90A2001F0CA
:1023C000F9F81E211220FEF7D2F90A2001F0F2F8E6
:1023D0004FF4B1511020FEF7CAF942F6392113200B
:1023E000FEF7C5F90A2001F0E5F84FF480710120ED
:1023F000FEF7BDF94FF440710220FEF7B8F941F243
:1024000030010320FEF7B3F940F202210820FEF765
:10241000AEF908210A20FEF7AAF900213020FEF7C4
:10242000A6F940F202413120FEF7A1F94FF4837181
:102430003220FEF79CF940F20351332002E05BE0CA
:102440001C000020FEF793F94FF482713420FEF750
:102450008EF940F201313520FEF789F940F207711B
:102460003620FEF784F940F205313720FEF77FF978
:102470004FF402713820FEF77AF940F60B713920DB
:10248000FEF775F902214120FEF771F94FF41C5156
:102490006020FEF76CF901216120FEF768F94FF426
:1024A00004719020FEF763F94FF485719220FEF7D6
:1024B0005EF904219320FEF75AF94FF48071A020B1
:1024C000FEF755F901210720FEF751F921210720D8
:1024D000FEF74DF923210720FEF749F933210720A4
:1024E000FEF745F940F233110720FEF740F90021CD
:1024F000A020FEF73CF9B4E0F9480088A0F58A4135
:102500003539F8D130211520FEF731F910219A2004
:10251000FEF72DF920211120FEF729F943F2284179
:102520001020FEF724F902211220FEF720F941F2D3
:1025300038011320FEF71BF9282001F03BF8122187
:102540000846FEF714F9282001F034F843F2204140
:102550001020FEF70CF943F238011320FEF707F9BB
:10256000462001F027F800213020FEF700F940F264
:1025700002413120FEF7FBF840F207313220FEF72E
:10258000F6F84FF441713320FEF7F1F804213420BE
:10259000FEF7EDF840F201413520FEF7E8F840F291
:1025A00007713620FEF7E3F840F205313720FEF7D9
:1025B000DEF84FF4C2613820FEF7D9F84FF4C2615B
:1025C0003920FEF7D4F84FF480710120FEF7CFF8E0
:1025D0004FF440710220FEF7CAF841F230010320A7
:1025E000FEF7C5F840F608010820FEF7C0F80821FC
:1025F0000A20FEF7BCF84FF41C516020FEF7B7F834
:1026000001216120FEF7B3F84FF49F719020FEF78F
:10261000AEF84FF480719220FEF7A9F84FF4807164
:102620009320FEF7A4F84FF44051A020FEF79FF846
:102630001021A320FEF79BF801210720FEF797F851
:1026400021210720FEF793F823210720FEF78FF8BA
:1026500033210720FEF78BF840F233110720FEF7F5
:1026600086F80020FEF773F901209E4908604FF6B6
:10267000FF70FEF7DDFA08BD2DE9F05F05460E4656
:1026800017469846DDF828A04FF0000B0020FEF713
:102690005EF9781B401C1FFA80FB34461EE0214681
:1026A000284604F085FDFEF77EF84FF0000911E0A2
:1026B0004FF480708C490861400048618B48C0F835
:1026C00000A08020486108618000086109F10100D4
:1026D0001FFA80F9D945EBDB601C84B24445DEDD8E
:1026E0000020FEF734F9BDE8F09F2DE9FF4F85B0DB
:1026F00081468A460020049003900798A0EB0905C4
:102700000898A0EB0A06CDF80890CDF804A0002D9B
:1027100001DD012705E00DB9002702E04FF0FF378A
:102720006D42002E02DD4FF0010806E016B94FF0B1
:10273000000802E04FF0FF387642B54201DD2C463A
:1027400000E034464FF0000B21E0019881B202987E
:1027500080B2FEF753FA049828440490039830445A
:1027600003900498A04205DD0498001B0490029891
:10277000384402900398A04205DD0398001B0390A3
:102780000198404401900BF101001FFA80FB601C8E
:102790008345DADD09B0BDE8F08F2DE9F04104464C
:1027A0000D4616461F462B46324629462046FFF761
:1027B0009CFF3B46224629462046FFF796FF3B46B4
:1027C000324639462046FFF790FF3B4632462946BF
:1027D0003046FFF78AFFBDE8F0812DE9F047064655
:1027E0000F469046002445460320A0EB480948E0E8
:1027F0003A1B91B2721B90B2FEF700FA3A1B91B2EB
:10280000721990B2FEF7FAF97A1991B2321B90B2AE
:10281000FEF7F4F93A1B91B2721B90B2FEF7EEF993
:102820007A1B91B2321B90B2FEF7E8F93A1991B2D5
:10283000721990B2FEF7E2F97A1B91B2321990B296
:10284000FEF7DCF97A1991B2321990B2FEF7D6F997
:102850003A1991B2721B90B2FEF7D0F9641CB9F12B
:10286000000F03DAA000801D814404E0601B80009B
:102870000A3081446D1E7A1991B2321990B2FEF776
:10288000BDF9AC42B4DDBDE8F0872DE9F84F07464D
:10289000894616461D46BB46154800880090E82F1D
:1028A00002DCB9F59C7F01DDBDE8F88FA6F12000C0
:1028B000C6B20A98002847D1002442E00C2D07D167
:1028C00006EB46000B4901EB800010F804A004E081
:1028D000094800EB061010F804A04FF0000824E0AF
:1028E0001C000020A8012242001001400C0C0140F5
:1028F000180000208A720008FE7600081AF0010F06
:1029000003D07F490098088003E07E4800887C4916
:10291000088049463846FEF771F94FEA6A0A781C82
:1029200087B208F1010000F0FF0805EBD571B8EBA4
:10293000610FE3DB5F4609F101001FFA80F9601CBB
:10294000C4B2AC42BADB2DE0002429E00C2D07D143
:1029500006EB46006C4901EB800010F804A004E08F
:102960006A4800EB061010F804A04FF0000810E0D1
:102970001AF0010F07D009EB040291B207EB08022D
:1029800090B2FEF73BF94FEA6A0A08F1010000F045
:10299000FF0805EBD571B8EB610FE9DB601CC4B231
:1029A000AC42D3DB56490098088000BF7CE710B5E5
:1029B0000246012000E050430B00A1F10104E1B206
:1029C000F9D110BD2DE9FF4F81B0074691461E4653
:1029D0000E9D4FF0000A002439E0301B401EC1B2AA
:1029E0000A20FFF7E4FFB9FBF0F00A21B0FBF1F297
:1029F00001FB1208BAF1000F16D1701EA04213DDC0
:102A0000B8F1000F0ED10020AB4605EBDB71491089
:102A100001FB0471009088B22B4620220299FFF737
:102A200034FF12E04FF0010A0020AB4605EBDB71EA
:102A3000491001FB0471009088B22B4608F1300167
:102A4000CAB20299FFF721FF00BF601CC4B2B442B2
:102A5000C3DB05B0BDE8F08F2DE9FF4F81B007461D
:102A600090461D46DDE90E6A00241EE0281B401E2C
:102A7000C1B20A20FFF79BFFB8FBF0F00A21B0FBC0
:102A8000F1F201FB1209B34606EBDB71491001FBC1
:102A9000047188B2334609F13001CAB2CDF800A002
:102AA0000299FFF7F2FE601CC4B2AC42DEDB05B057
:102AB000BDE8F08FF8B505460E4614461BE0E82D3C
:102AC00003DD002506F1100086B2B6F59C7F06DD19
:102AD0000020054606464FF6FF70FEF7A9F80020D5
:102AE00000902278102331462846FFF7CEFE05F1EC
:102AF000080085B2641C20780028E0D1F8BD0000F1
:102B0000180000201A0000208A720008FE760008D3
:102B100070B50546002405E0601CC4B2C82C01DD78
:102B2000002070BD02214D4801F00EFC0028F3D0BA
:102B300029464A4801F0B5FB002405E0601CC4B2F8
:102B4000C82C01DD0020ECE70121444801F0FCFB2A
:102B50000028F3D0414801F0A6FBC0B2E1E700B580
:102B600087B03F48C06840F480503D49C86008467F
:102B7000C06820F48050C860012141F2040001F0D7
:102B800029FAE020ADF8040018208DF80700032092
:102B90008DF8060001A9334800F068FF0020ADF869
:102BA00008004FF48270ADF80A000020ADF80C0068
:102BB0000220ADF80E000120ADF810000020ADF8A5
:102BC00012003820ADF814000020ADF816000720E0
:102BD000ADF8180002A9214801F08AFA01211F4826
:102BE00001F029FBFF20FFF793FF07B000BD1B4951
:102BF00009884FF6C7721140184A1180052825D25E
:102C0000DFE800F003080F161D0014490988134A75
:102C100011801BE01149098841F008010F4A118019
:102C200014E00E49098841F010010C4A11800DE0B2
:102C30000A49098841F01801084A118006E007494D
:102C4000098841F03801054A118000BF00BF0349DF
:102C5000098841F04001014A11807047003001406D
:102C6000001002400008014070B5054640F6FF74B0
:102C700001E0601E84B2FF20FFF74AFFA84201D0A6
:102C8000002CF6D10CB9FF2070BD0020FCE770B518
:102C9000FF25002400BFFF20FFF73AFF00F01F05CB
:102CA000A4F57F40FE3801D1012070BD641C052DC4
:102CB00004D00B2D04D00D2D06D103E0052505E031
:102CC0000B20F2E70D20F0E7FF2500BF00BFFF2D2E
:102CD000E1D0002405E0641C14F1020F01D3FF20B1
:102CE000E3E7FF20FFF714FF0028F4D00020DCE723
:102CF0002DE9F04105460C46164600270821F74805
:102D000000F05FFFFF20FFF703FFFF20FFF700FF4A
:102D1000FF20FFF7FDFE0821F04800F054FF45F0CA
:102D20004000FFF7F5FE200EFFF7F2FEC4F3074068
:102D3000FFF7EEFEC4F30720FFF7EAFEE0B2FFF76D
:102D4000E7FE3046FFF7E4FE04E0781CC7B2C82F68
:102D500000DD05E0FF20FFF7DBFE8046FF28F4D012
:102D600000BF0821DD4800F02CFFFF20FFF7D0FE58
:102D70004046BDE8F0812DE9F04105460C46164677
:102D80000027FF20FFF7C4FEFF20FFF7C1FE082148
:102D9000D24800F018FF45F04000FFF7B9FE200EC2
:102DA000FFF7B6FEC4F30740FFF7B2FEC4F30720F7
:102DB000FFF7AEFEE0B2FFF7ABFE3046FFF7A8FE2E
:102DC00004E0781CC7B2C82F00DD05E0FF20FFF744
:102DD0009FFE8046FF28F4D000BF4046BDE8F0814A
:102DE00070B5002401E0601C84B2B4F5706FFADBAA
:102DF000002404E0FF20FFF78BFE601C84B20A2C45
:102E0000F8DB002500BF952200210846FFF770FF80
:102E10000446681CC5B2012C01D0C82DF3DBC82DB7
:102E200001D1012070BD0020FCE73EB50121042046
:102E300001F0D0F81C20ADF8080010208DF80B0030
:102E400003208DF80A0002A9A44800F00FFE042117
:102E5000A24800F0B6FE0821A04800F0B2FE102102
:102E60009E4800F0AEFEFFF77AFE0420FFF7BFFE9B
:102E700008219A4800F0A5FEFFF7B2FF08B1012033
:102E80003EBD0821954800F09EFE87224FF4D57183
:102E90000820FFF770FF0446052C54D1012090490B
:102EA000087008218D4800F08CFEFF20FFF730FEEF
:102EB000002500BF002211463720FFF719FF044606
:102EC000FF2C01D12046DBE7002211462920FFF725
:102ED0000FFF0446681C85B214B1B5F5C87FE9DB65
:102EE000B5F5C87F15D1002500BF0022114601208D
:102EF000FFF7FEFE0446681C85B214B1B5F5C87F25
:102F0000F3DBB5F5C87F01D10120B9E70020744992
:102F100008700120FFF76BFEFF20FFF7F9FD9522F7
:102F200000213B20FFF7E4FE04460CB12046A7E752
:102F300095224FF400711020FFF7DAFE0446002CB2
:102F40006ED020469CE7012C6AD1FF20FFF7E0FD00
:102F50008DF80000FF20FFF7DBFD8DF80100FF205A
:102F6000FFF7D6FD8DF80200FF20FFF7D1FD8DF8A9
:102F700003000821594800F024FEFF20FFF7C8FD98
:102F8000002500BF002211463720FFF7B1FE04469E
:102F9000012C01D0204673E700224FF08041292008
:102FA000FFF7A6FE0446C82D01DD204668E7002C89
:102FB000E8D1002211463A20FFF7DDFE04462CB18D
:102FC0000821464800F0FDFD204659E7FF20FFF7A5
:102FD0009FFD8DF80000FF20FFF79AFD8DF801009E
:102FE000FF20FFF795FD8DF80200FF20FFF790FD11
:102FF0008DF803000821394800F0E3FDFF20FFF7BA
:1030000087FD9DF8000010F0400F03D004203449E4
:10301000087002E00220324908700120FFF7E7FD46
:1030200020462DE770B504460E46154608212B486C
:1030300000F0C9FDFE20FFF717FE28B10821274840
:1030400000F0BFFD012070BD04E0FF20FFF760FD30
:103050002070641C3000A6F101018EB2F5D1FF2072
:10306000FFF756FDFF20FFF753FD012D06D1082184
:103070001A4800F0A6FDFF20FFF74AFD0020E2E716
:1030800070B50546FF2200210A20FFF731FE0446F5
:103090000CB1204670BD012210212846FFF7C2FF67
:1030A0000020F7E770B50546FF2200210920FFF751
:1030B0001FFE04460CB1204670BD01221021284697
:1030C000FFF7B0FF0020F7E72DE9FF416846FFF763
:1030D000E9FF38B1002004B0BDE8F08100080140EC
:1030E0001E0000209DF8000000F0C000402809D11B
:1030F0009DF8080005029DF80900401C0544AD023A
:103100006D022EE09DF8060000F0030424029DF8F5
:1031100007000444A4009DF8080004EB90149DF8F7
:10312000090000F0030676009DF80A0006EBD016B1
:10313000B61C012703E07804070C701EC6B2002EEF
:10314000F9D1601C00FB07F59DF8050000F00F04A5
:10315000012703E07804070C601E84B2002CF9D12B
:103160007D432846B7E770B505460E460120FFF7B8
:103170003EFDF9480078042800D06D02002229465F
:103180001120FFF7B5FD04460CB1204670BD0122A9
:1031900051023046FFF746FF04460CB12046F5E7E2
:1031A0000020F3E72DE9F05F04460E4617464FF086
:1031B000000BD9464FEA572B0821E84800F003FDE1
:1031C00035E006EB090AE4480078042801D14FEA0B
:1031D0005A2AFF2251461820FFF7CDFD054635B18A
:1031E0000821DE4800F0EDFC0120BDE8F09FFE2044
:1031F000FFF78EFC4FF0000805E014F8010BFFF715
:1032000087FC08F10108B8F5007FF6D3FF20FFF72F
:103210007FFCFF20FFF77CFCFFF739FD28B1082178
:10322000CE4800F0CEFC0220DFE709F500795FEA26
:103230000B00ABF1010BC4D10821C84800F0C1FC60
:10324000FF20FFF765FC0020CFE72DE9F04705469A
:103250000E4617464FF0000AD046C14600244FEAFA
:10326000572A0821BD4800F0AEFC26E006EB08090D
:10327000B9480078042801D14FEA5929FF2249466C
:103280001120FFF778FD044634B10821B34800F05F
:1032900098FC2046BDE8F087012251022846FFF73E
:1032A000C1FE04462CB10821AC4800F08AFC20463F
:1032B000F0E705F5007508F500785FEA0A00AAF165
:1032C000010AD3D10821A54800F07BFCFF20FFF7BD
:1032D0001FFC0020DEE72DE9F04105460E469E4822
:1032E0000078042800D06D02002229461820FFF73C
:1032F000FFFC044614B12046BDE8F0810821974840
:1033000000F061FCFF20FFF703FCFF20FFF700FC4B
:10331000FF20FFF7FDFBFE20FFF7FAFB002705E08B
:1033200016F8010BFFF7F4FB781C87B2B7F5007FA6
:10333000F6DBFF20FFF7ECFBFF20FFF7E9FBFF20A8
:10334000FFF7E6FB044604F01F00052805D008211E
:10335000824800F036FC2046CEE74FF000080DE032
:1033600008F101001FFA80F84FF6FE70804505DD78
:1033700008217A4800F025FC0120BDE7FF20FFF777
:10338000C7FB0028ECD00821744800F01AFCFF208D
:10339000FFF7BEFB0020AFE72DE9F04105460E46E2
:1033A00014466D480078042800D06D02002229469A
:1033B0001220FFF79DFC074617B13846BDE8F081A3
:1033C00000BF00224FF400713046FFF72BFE00B122
:1033D00005E006F50076601EC0B20400F1D100BF22
:1033E000002211460C20FFF783FC08215B4800F007
:1033F000E8FBFF20FFF78CFB0CB12046DEE7002046
:10340000DCE72DE9F04106460F46154652480078A4
:10341000042800D076025048007828B100222946BE
:103420001720FFF765FC0446002231461920FFF7FC
:103430005FFC044614B12046BDE8F08108214748EE
:1034400000F0C1FBFF20FFF763FBFF20FFF760FBED
:1034500000BFFC20FFF75CFB4FF0000807E017F807
:10346000010BFFF755FB08F101001FFA80F8B8F5D2
:10347000007FF4DBFF20FFF74BFBFF20FFF748FB4B
:10348000FF20FFF745FB044604F01F00052805D088
:103490000821324800F095FB2046CDE7FFF7F7FB07
:1034A000012805D108212D4800F08BFB0120C3E73E
:1034B000681EC0B20500CCD1FD20FFF729FB0446F1
:1034C00004B9FE25FFF7E3FB28B10821234800F0EB
:1034D00078FB0120B0E70821204800F072FBFF20B4
:1034E000FFF716FB2846A7E72DE9F04707460D46EC
:1034F000164698460024790200221120FFF7F8FBB7
:103500008146B9F1000F02D04846BDE8F087082196
:10351000124800F058FBFE20FFF7A6FB28B1082157
:103520000E4800F04EFB0120EFE7002404E0FF20EE
:10353000FFF7EEFA601C84B2B442F8D306E0FF2035
:10354000FFF7E6FA05F8010B601C84B206EB0800F1
:10355000A042F4D809E000001E000020000801404D
:10356000FF20FFF7D5FA601C84B2B4F5007FF7DBCB
:10357000FF20FFF7CDFAFF20FFF7CAFA0821024823
:1035800000F01FFB0020C0E70008014010B5044612
:103590006FF0040000F05EF9E11704EB5171C910FF
:1035A0001F4A1170104600784FF47A7148431D4944
:1035B000088010BD01461B4A12884A434FF0E023A1
:1035C0005A6100229A6101221A6100BF4FF0E02285
:1035D000106910F0010F02D010F4803FF6D00022E5
:1035E0004FF0E0231A619A61704701460C4A127845
:1035F0004A434FF0E0235A6100229A6101221A6186
:1036000000BF4FF0E022106910F0010F02D010F45B
:10361000803FF6D000224FF0E0231A619A61704794
:10362000200000202200002010B54FF4A06000F020
:10363000C1F810BD014600BF704700BF494A12885B
:1036400012F0400FFAD0C2B2464B1B1D1A807047D1
:1036500010B586B00446012144F2050000F0BAFC22
:103660004FF40070ADF8140003208DF816001820F8
:103670008DF8170005A93C4800F0F8F94FF4806078
:10368000ADF8140004208DF8170005A9364800F0A5
:10369000EDF925208DF8000003208DF801008DF84C
:1036A000020001208DF80300684600F088F80194BC
:1036B0000020ADF80800ADF80A00ADF80C00ADF838
:1036C00010000C20ADF80E0001A9264800F0B5FE50
:1036D000012240F22551234800F047FF01212148F3
:1036E00000F037FF06B010BD10B540F225511D485F
:1036F00001F023F810B31B4800F09FFFC4B21B4831
:10370000007810F0800F2BD11848007810F0400F8F
:103710000CD00A2C03D000201449087020E0134874
:10372000007840F080001149087019E00D2C06D196
:103730000E48007840F040000C49087010E00B483B
:10374000007800F03F000A490C5408480078401CFB
:1037500006490870084600783F2801DD00200870FF
:1037600010BD000000380140000801402400002086
:103770001C0200200948804709480047FEE7FEE791
:10378000FEE7FEE7FEE7FEE7FEE7FEE7FEE7FEE711
:1037900004480549054A064B704700008D0500089E
:1037A000ED00000848050020480B002048070020D5
:1037B0004807002031490143314A1160704770B514
:1037C000002100230F22C4780CB32D4C246804F48C
:1037D000E064C4F5E064210AC1F10403CA404478FE
:1037E00004FA03F18478144021430901254C06783A
:1037F000A155047804F01F050124AC4005786D1133
:103800004FF0E02606EB8505C5F8004109E0047895
:1038100004F01F050124AC401B4D0678761145F8D5
:10382000264070BD194A0A400243154B1B1F1A60FF
:10383000704739B1124A121D12680243104B1B1D0A
:103840001A6006E00E4A121D126882430C4B1B1DC3
:103850001A607047042808D14FF0E021096941F04F
:1038600004014FF0E022116107E04FF0E021096907
:1038700021F004014FF0E022116170470000FA05C9
:103880000CED00E000E400E080E100E080FFFF1FBD
:10389000002044490860091D0860091D0860091DD1
:1038A000086041483F4914310860704700213D4994
:1038B0008279002A3AD00A46126803689A430B4676
:1038C0001A600A1D126803689A430B1D1A60027978
:1038D00011440A6803681A430A60324A08321268BF
:1038E00003689A432F4B08331A601A1D1268036845
:1038F0009A432C4B0C331A604279102A0ED11A1FAE
:10390000126803681A43274B08331A601A1D12689D
:1039100003681A43234B0C331A600DE021494279A6
:1039200011440A6803681A430A6005E002791144E9
:103930000A6803689A430A607047002101600171B8
:103940000C214171002181717047164910310968BD
:103950000143144A10321160704701460020114A99
:10396000143212680A4201D0012000E000207047A2
:103970000C49143108607047014600200022094BB1
:103980001B6803EA0102074B14331B680B4202D089
:103990000AB1012000E0002070470249143108609C
:1039A0007047000000040140FFFF0F0010B50446FF
:1039B000CA48844208D10121042000F025FB0021DF
:1039C000042000F021FB46E0C548844208D10121D3
:1039D000082000F019FB0021082000F015FB3AE058
:1039E000C048844208D10121102000F00DFB0021C5
:1039F000102000F009FB2EE0BB48844208D10121D1
:103A0000202000F001FB0021202000F0FDFA22E040
:103A1000B648844208D10121402000F0F5FA002187
:103A2000402000F0F1FA16E0B148844208D10121AB
:103A3000802000F0E9FA0021802000F0E5FA0AE099
:103A4000AC48844207D10121801500F0DDFA002145
:103A5000A01500F0D9FA10BD10B50121084600F0FC
:103A6000D3FA0021012000F0CFFA10BD2DE9F0417A
:103A7000024600250026002000230024002791F89C
:103A800003C00CF00F0591F803C01CF0100F03D019
:103A900091F802C04CEA0505B1F800C01CF0FF0F18
:103AA00031D0146800202BE04FF0010C0CFA00F329
:103AB000B1F800C00CEA03069E4220D183004FF00B
:103AC0000F0C0CFA03F7BC4305FA03FC4CEA0404A0
:103AD00091F803C0BCF1280F06D14FF0010C0CFA8D
:103AE00000FCC2F814C00AE091F803C0BCF1480F12
:103AF00005D14FF0010C0CFA00FCC2F810C0401CBC
:103B00000828D1D31460B1F800C0BCF1FF0F34DD38
:103B1000546800202EE000F1080C4FF0010808FA6C
:103B20000CF3B1F800C00CEA03069E4221D18300D9
:103B30004FF00F0C0CFA03F7BC4305FA03FC4CEAF8
:103B4000040491F803C0BCF1280F05D100F1080C62
:103B500008FA0CF8C2F8148091F803C0BCF1480FC1
:103B600007D100F1080C4FF0010808FA0CF8C2F870
:103B70001080401C0828CED35460BDE8F0814FF679
:103B8000FF710180022181700421C17070470246DB
:103B9000002093680B4201D0012000E00020704714
:103BA0000146886880B2704702460020D3680B4205
:103BB00001D0012000E0002070470146C86880B2B3
:103BC000704701617047416170470AB1016100E0CF
:103BD00041617047C16070474FF480320A4382618F
:103BE0008161826182698269704702460020424B8E
:103BF00018684FF68073184040EA021008433E4BA5
:103C0000186070473D49C8617047F0B50A46002307
:103C100000240021002500F00046B6F1004F02D13B
:103C2000354EF16901E0344E7168C0F3034583B24B
:103C300000F44016B6F5401F08D121F070612E4EF9
:103C4000766826F070662C4F7E6012E000F48016D5
:103C5000B6F5801F06D1032606FA05F4A14341F00C
:103C6000706106E0460D360103FA06F6B14341F0F5
:103C7000706122B1460D360103FA06F6314300F0B9
:103C80000046B6F1004F02D11B4EF16101E01A4E21
:103C90007160F0BD30B500228B071C0F0F2303FAB3
:103CA00004F2154B08338C1053F824309343124C14
:103CB00008348D1044F8253023468C1053F82430F6
:103CC0008C07240F00FA04F423430B4C08348D10A6
:103CD00044F8253030BD0A490860704700080140AB
:103CE000000C014000100140001401400018014088
:103CF000001C014000200140000001400000204263
:103D0000DC002042DC48006840F00100DA4908602D
:103D100008464068D9490840D749486008460068C5
:103D2000D7490840D44908600846006820F480203C
:103D300008600846406820F4FE0048604FF41F0009
:103D400088607047CC49096821F48031CA4A116003
:103D50001146096821F480211160B0F5803F03D03D
:103D6000B0F5802F0ED106E0C349096841F48031D7
:103D7000C14A116007E0C049096841F4A021BE4A68
:103D8000116000E000BF00BF704710B5014600227F
:103D9000002300204A11012A02D1B74C236806E013
:103DA000022A02D1B44C236A01E0B34C636A01F0E9
:103DB0001F02012494401C4201D0012000E0002099
:103DC00010BD70B500240025002600BF3120FFF78C
:103DD000DCFF0646641CB4F5A06F01D0002EF5D0C0
:103DE0003120FFF7D2FF08B1012500E00025284669
:103DF00070BD01460020A04A106820F0F80040EA9B
:103E0000C100106070479F4908607047024600205B
:103E1000994B586820F47C1042EA01031843964BF2
:103E20005860704797490866704701460020924ADB
:103E3000506820F003000843506070478E48406887
:103E400000F00C007047014600208B4A506820F0BB
:103E5000F00008435060704701460020864A5068D1
:103E600020F4E06008435060704701460020824A19
:103E7000506820F4605040EAC1005060704729B19A
:103E80007D4A527A02437C4B5A7206E07A4A527A51
:103E9000C343DBB21A40784B5A7270477A490860C4
:103EA000704701460020744A506820F4404008439F
:103EB000506070470021754A11706F4A82F82010D7
:103EC000012802D0042808D103E001216F4A1170B3
:103ED00004E005216D4A117000E000BF00BF70478B
:103EE0006B49086070476449096A0143624A11627C
:103EF0007047674944390860704730B50021002297
:103F0000002400235C4D6D6805F00C0121B10429EB
:103F100005D0082923D105E05E4D056022E05D4D06
:103F200005601FE0544D6D6805F47012524D6D68C8
:103F300005F48034022505EB92421CB9564D5543D9
:103F400005600BE04C4D6D6815F4003F03D0524DF9
:103F50005543056002E04F4D5543056002E04D4D6D
:103F6000056000BF00BF444D6D6805F0F001090910
:103F70004A4D6B5C0568DD4045603F4D6D6805F45A
:103F8000E061090A454D6B5C4568DD4085603A4D4E
:103F90006D6805F46051C90A404D6B5C4568DD40B1
:103FA000C560354D6D6805F44041890B3C4D6B5C37
:103FB000C568B5FBF3F5056130BD29B12E4A5269DC
:103FC00002432D4B5A6104E02B4A526982432A4B2B
:103FD0005A61704729B1284A92690243264B9A6177
:103FE00004E0254A92698243234B9A61704729B1C4
:103FF000214AD2690243204BDA6104E01E4AD269A9
:1040000082431D4BDA61704729B11B4AD2680243D3
:10401000194BDA6004E0184AD2688243164BDA6022
:10402000704729B1144A12690243134B1A6104E024
:10403000114A12698243104B1A6170471449403982
:10404000086070470F49C86470470B49C8717047D2
:104050000948406A40F0807007494862704701464D
:104060000020054A92680A4201D0012000E00020A9
:104070007047014988727047001002400000FFF845
:10408000FFFFF6FE00004242D800424220100240EC
:104090008004424200127A0000093D002C000020FA
:1040A0003C00002010B50446BF48844208D10121DD
:1040B0008014FFF7A9FF0021A014FFF7A5FF16E069
:1040C000BA48844208D101210014FFF7AAFF002159
:1040D0002014FFF7A6FF0AE0B548844207D101216A
:1040E000C013FFF79EFF0021E013FFF79AFF10BDFA
:1040F00010B50022028802F441520B884C882343F9
:104100008C882343CC8823430C8923434C89234345
:104110008C892343CC8923431A430280838B4FF23B
:10412000FF74234083830B8A038210BD2DE9F04F77
:1041300085B005460C464FF0000902274FF00008F5
:104140004FF0010B0026B246A88B4FF24001084009
:10415000A88302202884B5F81C90A068022801D109
:1041600000BF36E0A08810B94FF0010B01E04FF01E
:10417000020B8E48854200D100E000BF6846FFF781
:10418000BCFEDDF800A0E088B0F5007F0AD14FEA60
:104190001A2000EB80004000A168B0FBF1F0401D48
:1041A00086B20BE04FEA4B10BAFBF0F000EB800058
:1041B0004000A168B0FBF1F0401D86B20A20B6FBBA
:1041C000F0F606F00108A6EB0800C0F34F074FEA2F
:1041D0000828022F01DBFF2F02DD02274FF0000825
:1041E000E08840EA080038432884A088A189084371
:1041F000618808432188084340F4006040EA0909C7
:10420000A5F81C9005B0BDE8F08F00210180418029
:104210008180C180018141818181C1810721018229
:1042200070470021018041808180C180022181602E
:1042300000218181704721B1028842F04002028052
:1042400004E002884FF6BF731A400280704721B124
:10425000828B42F48062828304E0828B4FF6FF33CC
:104260001A408283704770B5002400230C11012589
:10427000A540ABB21AB185881D43858004E08588CE
:10428000DE43B6B23540858070BD10B51AB1838863
:104290000B43838004E08388CC43A4B22340838013
:1042A00010BD81817047014688897047A1F57E4223
:1042B000FF3A04D0028842F48072028004E002884F
:1042C0004FF6FF631A400280704721B1828842F0A6
:1042D0000402828004E082884FF6FB731A408280D9
:1042E000704702884FF2FF731A40028002880A4327
:1042F00002807047018841F480510180704721B1EC
:10430000028842F40052028004E002884DF6FF73F6
:104310001A400280704702460020012901D0108B0C
:1043200000E0908A70470146088A7047B1F5804FD7
:1043300004D1028842F48042028004E002884BF6F5
:10434000FF731A40028070470246002013890B4217
:1043500001D0012000E000207047CA43028170476D
:10436000F0B50246002000240023002501F00F07CD
:104370000126BE40B4B20B1101269E40B3B296880E
:1043800006EA03051689264202D00DB1012000E09D
:104390000020F0BD10B5002201F00F040123A3405E
:1043A0009AB2D343038110BD003001400038004071
:1043B000003C004010B50446FC48844209D101216C
:1043C0008803FFF721FE00214FF48040FFF71CFE19
:1043D00032E0F748844209D101214804FFF721FE69
:1043E00000214FF40030FFF71CFE25E0F148844225
:1043F00009D101218804FFF714FE00214FF4802029
:10440000FFF70FFE18E0EC48844209D10121C804EF
:10441000FFF707FE00214FF40020FFF702FE0BE03C
:10442000E648844208D101210805FFF7FAFD002182
:104430004FF48010FFF7F5FD10BD2DE9F04786B071
:1044400005460E460024A24600BFA1460027B089BB
:1044500000B100BF2F462C8A4CF6FF700440F08854
:1044600004432C82AC894EF6F3100440B0883189A5
:104470000843718908430443AC81AC8A4FF6FF407E
:104480000440B0890443AC8201A8FFF736FDC74859
:10449000874202D1DDF810A001E0DDF80CA0A88968
:1044A00010F4004F08D00AEBCA0000EB0A10316884
:1044B0004900B0FBF1F807E00AEBCA0000EB0A1074
:1044C00031688900B0FBF1F86420B8FBF0F004011A
:1044D0002009642101FB1089A88910F4004F08D03D
:1044E000322000EBC900B0FBF1F000F007000443FC
:1044F00008E0322000EB09106421B0FBF1F000F07D
:104500000F0004432C8106B0BDE8F0874FF416512C
:10451000016000218180C18001810C214181002145
:104520008181704710B502460020108A4FF2FF03C8
:1045300018400B884C8823438C882343CC88234322
:104540001843108210BD0021018041808180C1800C
:10455000704721B1828942F40052828104E082894D
:104560004DF6FF731A4082817047F0B50346002470
:10457000002600250020A1F510676A3F00D100BF8A
:104580001846C1F3421401F01F06012707FA06F589
:10459000012C01D10C3004E0022C01D1103000E0DC
:1045A00014301AB107682F43076002E00768AF4371
:1045B0000760F0BD10B51AB1838A0B43838204E013
:1045C000838ACC43A4B22340838210BD028A4FF673
:1045D000F0731A400282028A0A430282704782897B
:1045E0004FF2FF731A40828182890A4382817047A9
:1045F00021B1828942F00202828104E082894FF671
:10460000FD731A4082817047028A4FF6DF731A40A9
:104610000282028A0A430282704721B1028A42F46E
:104620008042028204E0028A4BF6FF731A40028243
:104630007047C1F308028280704701468888C0F342
:1046400008007047818941F0010181817047028B28
:10465000D2B20283028B42EA012202837047028BAC
:1046600002F47F420283028B0A430283704721B126
:10467000828A42F02002828204E0828A4FF6DF734F
:104680001A408282704721B1828A42F010028282EF
:1046900004E0828A4FF6EF731A408282704721B19C
:1046A000828A42F00802828204E0828A4FF6F7731F
:1046B0001A408282704721B1828942F4004282818D
:1046C00003E08289C2F30E028281704721B1828A9F
:1046D00042F40062828204E0828A4FF2FF731A4041
:1046E00082827047828A4FF6FB731A408282828AE6
:1046F0000A438282704721B1828A42F0020282829A
:1047000004E0828A4FF6FD731A40828270470246A7
:104710000020B1F5007F00D100BF13880B4201D00B
:10472000012000E00020704701F40072B2F5007F24
:1047300000D100BFCA430280704770B50246002412
:10474000002300250020A1F510666A3E00D100BFBD
:10475000C1F3421501F01F03012606FA03F3012DF0
:1047600002D19689334006E0022D02D1168A3340E9
:1047700001E0968A33400C12012606FA04F41688EA
:10478000344013B10CB1012000E0002070BD10B521
:1047900000220023A1F510646A3C00D100BF0A1278
:1047A00001249440A3B2DC43048010BD00380140D2
:1047B0000044004000480040004C004000500040D1
:1047C00010B504462CB90120FE4909680882002072
:1047D00010BDFD49096808688047FA4800680A303A
:1047E000F6E710B5F7480068C078F849497888427C
:1047F00013DCF4480068807878B9F2480068808853
:1048000058B9F0480068C078EE4909688872EE49E6
:10481000096848688047002010BD0220FCE710B5F9
:1048200004462CB90120E74909680882002010BD20
:10483000E549096888688047E24800680C30F6E777
:1048400010B5E04B1B68D978DE4B1B685879E04BFC
:104850001B689A6990470446DA480068807AE8B194
:104860003CB9D8480068007918B9D6480068807803
:1048700008B1022010BD8CB9D3490968C8688047C7
:10488000D04800684079CF490968C872CD480068AF
:10489000C078CC49096808730020EBE70220E9E7FB
:1048A00010B504462CB90220C649096808820020C8
:1048B00010BD0020C7490880C2480068007810F089
:1048C0007F0F1CD1BF490968487A10F0200F05D02E
:1048D000C049097841F00201BE4A117010F0400F42
:1048E00006D0BC49097801F0FE01BA4A117005E012
:1048F000B849097841F00101B64A117036E0B14873
:104900000068007800F07F00012801D1B148CFE7AE
:10491000AC480068007800F07F00022824D1A94A42
:104920001268517901F00F0011F0800F0DD0AA4AE2
:1049300052F8202002F03002102A14D1A54A127831
:1049400042F00102A34B1A700DE0A34A52F8202056
:1049500002F44052B2F5805F05D19E4A127842F0CF
:1049600001029C4B1A7001E00020A1E796490968FA
:104970000869804797489BE72DE9F0479148006810
:10498000007800F07F08B8F1000F0AD18D48006868
:10499000407A00F0DF008B49096848720020BDE8CA
:1049A000F087B8F1020F78D186480068408818B9BE
:1049B00084480068007908B10220F0E7DFF80C9223
:1049C00080480068477927F080052C467D480068BC
:1049D000407910F0800F05D07F4850F8240000F097
:1049E000300604E07C4850F8240000F4405699F862
:1049F0000000A84204D91EB172480068807A08B944
:104A00000220CCE717F0800F0ED0734850F8240036
:104A100000F03000102839D1E0B200F0EEFF302174
:104A2000E0B200F0ADFE31E06B4850F8240000F435
:104A30004050B0F5805F29D1ACB9684890F82C108F
:104A4000E0B201F061F8644951F8241089B24BF6E4
:104A50008F7201EA020080F4805080F400505E49B9
:104A600041F8240012E0E0B200F0B1FF5A4951F8D9
:104A7000241089B24BF68F7201EA020080F4805054
:104A800080F40050544941F8240000BF4E490968A1
:104A900048698047002082E7FFE700BF02207EE7E9
:104AA0002DE9F04147480068467926F080073C46EA
:104AB00044480068407910F0800F05D0464850F80F
:104AC000240000F0300504E0434850F8240000F4CE
:104AD00040553E480078A04208D93A4800684088CE
:104AE00020B91DB137480068807A10B90220BDE8AE
:104AF000F08116F0800F0DD0374951F8241089B29B
:104B000048F6BF7201EA020080F01000324941F815
:104B100024000DE0304951F8241089B24BF68F7211
:104B200001EA020080F480502B4941F8240000BFC4
:104B300025490968886980470020D8E710B52148D1
:104B40000068407A40F020001E49096848721E49FA
:104B50000968C8698047002010BD10B50246194891
:104B60000068438A32B98888C01A164C24682082AB
:104B7000002010BD08681844FBE72DE9F0411148FA
:104B8000006800F110042688A068C0B1BEB1A588F5
:104B9000B54200D93546A8B2A168884707462088A3
:104BA000401B2080608828446080002000F078FF4F
:104BB0008046AAB24146384600F084FD00BF2088F6
:104BC000C8B10DE0480000205400002084010020FE
:104BD0004C00002042000020005C004088010020C2
:104BE0004FF44050FC4908800021084600F065FF62
:104BF0003020FA4908802088A188884204DB0320FD
:104C0000F7490968087218E02088002804DD0520AB
:104C1000F3490968087210E0208870B90620F0494D
:104C2000096808720021EF48006880B2801CEE4AD3
:104C300042F810103020E9490880BDE8F0812DE9E4
:104C4000F047E748006800F110052E88E448006846
:104C5000077AD6B9042F18D1E448007801280FD17B
:104C60000021E048006880B2801CDF4A42F8101042
:104C70003020DA49088000BF0020DC49087003E0DA
:104C800007271020D549088027E0AC88A64201D824
:104C9000042000E002200746B44200D93446A0B206
:104CA000A96888478046002000F0EEFE8146A2B247
:104CB0004946404600F0ECFCA1B2002000F0FDFEA9
:104CC0002888001B28806888204468803020C349D9
:104CD00008800002C049088000BFC14909680F72FE
:104CE000BDE8F08770B50226BD4800684478BC482E
:104CF0000068007810F07F0F4AD1092C03D1FFF72C
:104D000070FD064665E0052C14D1B5480068C078F2
:104D10007F280BDCB2480068807838B9B04800685A
:104D2000808818B9AE480068807A08B108256BE021
:104D300000264EE0032C14D1A9480068C078012851
:104D40000DD1A7480068808848B9A5480068407A16
:104D500010F0200F03D0FFF7F1FE064639E00226DF
:104D600037E0012C35D19E480068C07801280DD16C
:104D70009B480068808848B999480068407A10F0DC
:104D8000200F03D0FFF7F8FD064622E0022620E0C0
:104D900093480068007800F07F00012805D10B2CB3
:104DA00017D1FFF74DFD064613E08D4800680078E7
:104DB00000F07F0002280BD1012C03D1FFF7DCFDAE
:104DC000064606E0032C04D1FFF76AFE064600E023
:104DD00002264EB1864800684169E0B2884706461F
:104DE000032E01D109250FE00EB108250CE00625A0
:104DF00000217C48006880B2801C7B4A42F8101079
:104E000030207649088000BF754909680D7270BD71
:104E10002DE9F05F7248006845780027BA46062DF4
:104E20001AD16F480068007810F07F0F13D16C49D9
:104E300009688878012803D16D490968CF690AE0BB
:104E4000022803D16A4909680F6A04E0032802D1E5
:104E5000674909684F6A97E0002D65D1604800688E
:104E60004088002860D15E480068C08802285BD175
:104E70005B4800680079002856D1594800680078DE
:104E800010F07F0F06D156480068808810B9AFF245
:104E9000EF5779E052480068007800F07F00012861
:104EA00011D14F4909684879514909688A69002137
:104EB0009047002868D14A480068807A002863D06B
:104EC000AFF2236760E046480068007800F07F009A
:104ED000022859D142480068407900F00F06404846
:104EE0000068407900F070093D480068407910F092
:104EF000800F06D03B48503850F8260000F03008AC
:104F000005E03848503850F8260000F44058394839
:104F10000078B04238D9B9F1000F35D1B8F1000F9F
:104F200032D0AFF283672FE0082D08D12C480068FB
:104F3000007810F07F0F27D1AFF27B7724E00A2DA5
:104F400022D127480068007800F07F0001281BD19B
:104F500023480068807AB8B121480068408898B931
:104F60001F480068007978B91D480068C08801288A
:104F70000AD11B49096848791D4909688A690021D5
:104F8000904708B9AFF2697757B115480068A0F8A3
:104F900012A01348006887610020B84700240FE082
:104FA0000F4A12685078124A1268116988470446FD
:104FB000032C05D109200A4909680872BDE8F09F51
:104FC00007480068008AA0F57F41FF3914D1092005
:104FD000034909680872F1E7580000205A000020D0
:104FE00048000020505C004000600040400000206D
:104FF0004C00002084010020022C03D09948006856
:10500000008A20B90820974909680872D6E79548B0
:105010000068007810F0800F3BD092480068B0F82C
:1050200006B090480068008A584504D98D4909683F
:10503000A1F810B023E08B480068008A894909680C
:10504000C98888421BDA87480068008A864909684F
:1050500091F82C10884203DA0020844908700EE091
:1050600080480068008A8049096891F82C1090FBFC
:10507000F1F201FB120010B901207C4908707A4856
:10508000006890F82C10774800688182FFF7D7FD00
:1050900006E0032073490968087200037449088018
:1050A00000BF8BE710B5734890F82C10002000F07B
:1050B0002BFD6C480068007A082805D140026C4935
:1050C000088010206C49088066480068007A09282A
:1050D00001D1012010BD0020FCE708B56748006839
:1050E00080B2001D664951F8100080B201EB40000B
:1050F00000905C480068007A09282FD0009800785A
:105100005849096808700098401C00900098007881
:105110005449096848700098401C00900098801C11
:105120000090009931F8020B009100F08BFE4D4980
:10513000096848800098801C0090009931F8020BA3
:10514000009100F07FFE4749096888800098801C24
:1051500000900098008843490968C88001204149AF
:10516000096808723F480068C08810B9FFF7BAFDA7
:1051700001E0FFF74DFEFFF795FF08BD30B5014692
:10518000404B1A78002010E0C3B23C4C503C54F81D
:1051900023309BB248F68F742340C4B22343C4B279
:1051A000364D503D45F82430401C9042ECD341F040
:1051B0008003324C241F236030BD10B5294800689D
:1051C000047A022C01D0042C05D1FFF738FD2548C4
:1051D0000068047A1CE0062C19D122480068407847
:1051E00005280ED11F480068007810F07F0F08D105
:1051F0001C490968C878FFF7C1FF23490968086A94
:1052000080471949096888688047082400E0082415
:10521000144909680C72FFF745FF10BD10B511481D
:105220000068047A032C01D0052C05D1FFF7A5FCFA
:105230000C480068047A0EE0072C05D10A49096879
:10524000C8688047082406E0022C01D0042C01D154
:10525000082400E00824034909680C72FFF722FFC4
:1052600010BD7047480000204C0000204000002086
:1052700058000020880100205A000020505C0040A7
:1052800000600040840100205400002010B5084850
:105290000849086002200968087207480749086041
:1052A000074808490860054909680868804710BD33
:1052B0005C02002048000020880100204C000020F3
:1052C000B80100205400002010B5002476E147F614
:1052D000FF70E8490860E848008800F00F00E749DF
:1052E00008700846007800287ED1E24844380068FB
:1052F00000F44050E2490880DE484438006800F07D
:105300003000E0490880DB494439096889B24BF62E
:105310008F7201EA020080F40050D64944390860D7
:10532000096889B248F6BF7201EA020080F02000E5
:10533000D04944390860D048008810F0100F3BD1A4
:105340000846006880B248F60F710840C9494439E0
:105350000860FFF732FFC7494439096889B24BF644
:105360008F7201EA0200C649098811F4805F01D0FA
:1053700080F48050C249098811F4005F01D080F4A4
:105380000050BC4944390860096889B248F6BF72C8
:1053900001EA0200BB49098811F0100F01D080F02A
:1053A0001000B849098811F0200F01D080F02000CA
:1053B000B0494439086010BDAE484438006884B232
:1053C00014F0800F3ED0AB484438006880B248F6F5
:1053D0000F710840A74944390860FFF7EEFEA54960
:1053E0004439096889B200E0AEE04BF68F7201EAF9
:1053F0000200A349098811F4805F01D080F4805035
:105400009F49098811F4005F01D080F40050994948
:1054100044390860096889B248F6BF7201EA02009F
:105420009849098811F0100F01D080F010009549BB
:10543000098811F0200F01D080F020008D494439F7
:105440000860B8E714F4006F3DD08A48443800681B
:10545000C0F30E0048F68F71084086494439086051
:10546000FFF73BFE83494439096889B24BF68F72D6
:1054700001EA02008249098811F4805F01D080F4BA
:1054800080507F49098811F4005F01D080F40050FA
:10549000784944390860096889B248F6BF7201EA60
:1054A00002007849098811F0100F01D080F0100037
:1054B0007449098811F0200F01D080F020006D4957
:1054C0004439086077E714F4004F77D069484438CE
:1054D0000068C0F30E0048F68F71084065494439F2
:1054E0000860FFF79BFE63494439096889B24BF6AF
:1054F0008F7201EA02006249098811F4805F01D0CD
:1055000080F480505E49098811F4005F01D080F476
:105510000050584944390860096889B248F6BF729A
:1055200001EA02005749098811F0100F01D080F0FC
:1055300010005449098811F0200F01D080F020009C
:105540004C494439086036E74C48007849494439A9
:1055500051F8200084B214F4004F15D04748007869
:1055600051F82000C0F30E0048F68F7108404349FF
:105570000978404A443A42F8210040490978491ED6
:10558000414A52F82100804714F0800F16D03B4862
:1055900000783849443951F8200080B248F60F713C
:1055A000084036490978334A443A42F821003349E1
:1055B0000978491E354A52F8210080472D48006875
:1055C00080B22D49088010F4004F7FF480AE00BFF8
:1055D000F1E610B5002444E047F6FF702549086065
:1055E0002548008800F00F0024490870084600781C
:1055F0002049443951F8200084B214F4004F16D0E9
:105600001E48007851F82000C0F30E0048F68F7154
:1056100008401A490978174A443A42F821001749C4
:105620000978491E184A52F82100804719E014F001
:10563000800F16D0114800780E49443951F82000E7
:1056400080B248F60F7108400C490978094A443A7B
:1056500042F8210009490978491E0C4A52F82100F4
:1056600080470448006880B20349088010F4004F66
:10567000B2D110BD445C00407C01002044000020F9
:10568000580000205A000020600100204401002042
:10569000F0B5144604F1010C4FEA6C07DFF844C082
:1056A0000CEB41033D460AE00678401C90F800C030
:1056B00046EA0C2223F8022B9B1C401C6D1E002D79
:1056C000F2D1F0BDF0B5561C7510064E06EB410444
:1056D0002B4604E080CC20F8017B401C5B1E002B95
:1056E000F8D1F0BD00600040F94908607047F84803
:1056F000006880B27047F649091D08607047F44899
:10570000001D006880B27047F1480830006880B220
:105710007047EF490C3108607047ED480C30006865
:1057200080B270474FF6F8710140E94A10321160BB
:105730007047E7481030006880B27047E44A403A4A
:1057400042F8201070470146E148403850F82100E7
:1057500080B27047DE4A403A52F8202092B248F6B2
:105760008F131A400A43DA4B403B43F8202070471E
:105770000146D748403850F8210000F4C060704717
:1057800010B5D34B403B53F820309BB248F6BF7462
:1057900003EA040211F0100F01D082F0100211F0A0
:1057A000200F01D082F02002C94B403B43F820205B
:1057B00010BD10B5C64B403B53F820309BB24BF6A2
:1057C0008F7403EA040211F4805F01D082F48052E6
:1057D00011F4005F01D082F40052BD4B403B43F80E
:1057E000202010BD10B502460B461046FFF7ABFF58
:1057F0000446012B06D124F48050B549403941F8C4
:10580000220007E0022B05D124F01000B0494039F6
:1058100041F8220010BD0146AD48403850F8210043
:1058200000F0300070470146A948403850F8210088
:1058300000F440507047A64A403A52F8202092B2F5
:1058400048F6BF7302EA030181F0100181F02001E4
:105850009F4A403A42F8201070479D4A403A52F819
:10586000202092B24BF68F7302EA030181F480513B
:1058700081F40051964A403A42F82010704794490A
:10588000403951F8201089B241F4807148F68F7286
:1058900011408F4A403A42F8201070478C494039F5
:1058A00051F8201089B248F68F621140884A403A78
:1058B00042F8201070478649403951F8201089B2CB
:1058C00048F68F621140824A403A42F820107047F1
:1058D0007F49403951F8201089B241F4807148F66F
:1058E0008F7211407A4A403A42F820107047784946
:1058F000403951F8201089B241F4807148F68F7216
:105900001140734A403A42F82010704770494039BC
:1059100051F8201089B248F68F6211406C4A403A23
:1059200042F82010704701466948403850F821007D
:1059300000F03000102801D1012070470020FCE762
:1059400001466348403850F8210000F44050B0F55B
:10595000805F01D1012070470020FCE75C4940399D
:1059600051F82010C1F30E0148F68F721140584AC9
:10597000403A42F8201070475549403951F82010FC
:1059800089B248F60F721140514A403A42F820104D
:1059900070474F49403951F8201089B248F68F724C
:1059A000114041F480414A4A403A42F82010704781
:1059B0004749403951F8201089B248F68F7211409A
:1059C00041F04001424A403A42F8201070474049B5
:1059D000403951F8201011F4804F0DD03C49403926
:1059E00051F8201089B248F68F72114041F480417D
:1059F000374A403A42F8201070473549403951F84B
:105A0000201011F0400F0DD03149403951F82010CD
:105A100089B248F68F72114041F040012C4A403A59
:105A200042F8201070472A4A403A52F8202092B299
:105A300048F68F731A400A43254B403B43F8202019
:105A4000704701462248403850F8210000F00F000E
:105A5000704710B54A1053001D4A1032126892B2B6
:105A600002EBC0021B4C44F8123010BD10B54A10B6
:105A70005300174A1032126892B202EBC002121D94
:105A8000144C44F8123010BD014611481030006823
:105A900080B200EBC1000F4A52F8100080B270478C
:105AA00001460B481030006880B200EBC100001DB9
:105AB000084A52F8100080B27047054A1032126846
:105AC00092B202EBC002921C024B43F812107047D4
:105AD000405C00400060004002463E290BDD48115A
